:100000003FC059C058C057C056C055C054C053C057
:1000100052C051C050C04FC04EC04DC04CC04BC06C
:100020004AC049C048C008000000BE922449123EA0
:10003000ABAAAA2ABECDCCCC4C3E00000080BEAB01
:10004000AAAAAA3E00000000BF000000803F0000F6
:10005000000000084178D3BB4387D1133D190E3C03
:10006000C3BD4282AD2B3E68EC8276BED98FE1A93A
:100070003E4C80EFFFBE01C4FF7F3F000000000048
:1000800011241FBECFE5D4E0DEBFCDBF11E0A0E656
:10009000B0E0E8E4FBE102C005900D92AE31B1079B
:1000A000D9F721E0AEE1B1E001C01D92A835B20759
:1000B000E1F7CAD047CDA4CF982F907F92BB909AFA
:1000C0009198929AE1EEF4E03197F1F700C00000C8
:1000D0009298E3ECF9E03197F1F700C00000F0E10D
:1000E0008F9FC001112482BB909A9198929A81EEC1
:1000F00094E00197F1F700C0000092980895982FBE
:10010000907F92BB90989198929AE1EEF4E03197AB
:10011000F1F700C000009298E3ECF9E03197F1F7B5
:1001200000C00000F0E18F9FC001112482BB9098B5
:100130009198929A81EE94E00197F1F700C0000047
:100140009298089582E090E0DADF88E290E0D7DFCD
:1001500086E090E0D4DF8CE090E0D1DF80E890E0B2
:10016000CEDF0895CF93DF93EC018881882329F0B7
:100170002196A2DF89918111FCCFDF91CF91089563
:1001800015B814B897B1907E97B997B18F71982B25
:1001900097B9369A349BFECF349A84B195B10895BD
:1001A00080E487B98EE886B908958F929F92AF92C6
:1001B000BF92CF92DF92EF92FF92E2DF9C01990F04
:1001C000440B550B60EF78E18CE990E040DCCA010C
:1001D000B9016051774281099109D2DA62DB6B0182
:1001E0007C0129E537E44CEB53E39BDBA701960147
:1001F00098DBA701960195DB4B015C0123E73FE704
:1002000045E759E3C701B6018CDB2BEE3FEF43E92D
:100210005AE3B7D99B01AC01C501B401B2D99B0126
:10022000AC0160E070E080E89FE30FDA23E333E99C
:1002300048E853E4A5D9FF90EF90DF90CF90BF90AE
:10024000AF909F908F9008958FEF81BB14BA87BBBA
:100250008FB580688FBD8FB583608FBD8EB582608E
:100260008EBD70DF9DDF80E84ADF80E690E07ADFB8
:1002700080EC45DF81E790E075DF2FE74AE166E03B
:10028000215040406040E1F700C0000081E037DFCE
:10029000CCE2D1E00F2EF4EFCF2EDD24D394F02D5D
:1002A0000F2EEE24EA94F3E0FF2EF02D0CEB12E07B
:1002B00083E066DF909323018093220184E060DF76
:1002C000909325018093240182E05ADF90931F01CF
:1002D00080931E0181E090E068DF1FDA70932901AE
:1002E0006093280180E04CDFBC01990F880B990BCB
:1002F00047DA20E030E04EE552E413DB20E030E066
:1003000040E85AE30EDB09DA709327016093260177
:100310004AE050E06CE471E080912801909129015D
:10032000D4DB4AE050E060E471E0809126019091D6
:100330002701CBDB809128019091290149970CF08E
:100340007AC080911E0190911F01893E93400CF468
:1003500072C01BBC1ABCC298C398C4984AE050E053
:100360006AE271E08091240190912501AEDB4AE0C0
:1003700050E064E371E08091220190912301A5DBBC
:1003800080E8BDDE8AE291E0EDDE80ECB8DE84E359
:1003900091E0E8DE4FE76AE186E04150604080404E
:1003A000E1F700C0000081E0AADE80E8A8DE8EE769
:1003B00090E0D8DE82E8A3DE8CE491E0D3DE80EC2E
:1003C0009EDE81E890E0CEDE82EC99DE80E491E072
:1003D000C9DE9FE72AE146E0915020404040E1F726
:1003E00000C0000081E08BDE6FE986E891E061509B
:1003F00080409040E1F700C0000080E880DE84E8A3
:1004000090E0B0DE80EC7BDE8CE890E0ABDE2FEBA2
:1004100047E269E0215040406040E1F700C0000041
:1004200081E06DDE8FE996E821E081509040204028
:10043000E1F700C0000080912801909129014997BF
:10044000069708F0F4C181E090E090934B0180930F
:100450004A0180911E0190911F01893E93400CF446
:10046000E6C18091240190912501893E63E09607C1
:100470000CF459C82091220130912301293E3340C8
:100480000CF44BC82091200130912101232B09F05D
:1004900044C8DBBDCABDC298C398C49880E82FDEAB
:1004A0008EE790E05FDE82E82ADE8CE491E05ADE9F
:1004B00080EC25DE81E890E055DE82EC20DE80E4F1
:1004C00091E050DE6FE78AE196E061508040904015
:1004D000E1F700C0000081E012DE2FE946E861E0AC
:1004E000215040406040E1F700C0000080E807DE96
:1004F00084E990E037DE80EC02DE81EA90E032DED3
:100500008FEB97E229E0815090402040E1F700C056
:10051000000081E0F4DD4FE966E881E04150604091
:100520008040E1F700C0000010924B0110924A0198
:1005300081E090E0909321018093200178C1209187
:10054000220130912301283E43E034070CF05EC0C5
:1005500020912001309121012130310509F0AFC0F7
:10056000DBBDCABDC298C398C49880E8C8DD8EE7D9
:1005700090E0F8DD82E8C3DD8CE491E0F3DD80EC0F
:10058000BEDD81E890E0EEDD82ECB9DD80E491E053
:10059000E9DD6FE78AE196E0615080409040E1F745
:1005A00000C0000081E0ABDD2FE946E861E02150AA
:1005B00040406040E1F700C0000080E8A0DD84E931
:1005C00090E0D0DD80EC9BDD81EA90E0CBDD8FEB2D
:1005D00097E229E0815090402040E1F700C0000000
:1005E00081E08DDD4FE966E881E041506040804068
:1005F000E1F700C0000010924B0110924A0181E027
:1006000090E0909321018093200111C1293E334055
:100610000CF455C020912001309121012130310589
:1006200009F04DC0DBBDCABDC298C398C49A80E82A
:1006300066DD8EE790E096DD82E861DD8CE491E096
:1006400091DD80EC5CDD81E890E08CDD82EC57DDB3
:1006500080E491E087DD6FE78AE196E061508040B9
:100660009040E1F700C0000081E049DD2FE946E855
:1006700061E0215040406040E1F700C0000080E8A8
:100680003EDD84E990E06EDD80EC39DD8EEA90E0BD
:1006900069DD8FEB97E229E0815090402040E1F73F
:1006A00000C0000081E02BDD10924B0110924A0146
:1006B00081E090E09093210180932001B8C0893EB1
:1006C00093400CF4B4C08091220190912301883EA4
:1006D00063E096070CF054C08091200190912101B5
:1006E000019709F0A4C0DBBDCABDC298C39AC498E3
:1006F00080E805DD8EE790E035DD82E800DD8CE402
:1007000091E030DD80ECFBDC81E890E02BDD82ECD9
:10071000F6DC80E491E026DD8FE79AE126E0815067
:1007200090402040E1F700C0000081E0E8DC4FE9A4
:1007300066E881E0415060408040E1F700C0000081
:1007400080E8DDDC86EB90E00DDD80ECD8DC81EA32
:1007500090E008DD9FEB27E249E0915020404040C7
:10076000E1F700C0000081E0CADC10924B0110925A
:100770004A0181E090E0909321018093200157C0CD
:10078000893E93400CF453C0809120019091210147
:10079000019709F04CC0DBBDCABDC298C39AC49A88
:1007A00080E8ADDC8EE790E0DDDC82E8A8DC8CE45C
:1007B00091E0D8DC80ECA3DC81E890E0D3DC82EC33
:1007C0009EDC80E491E0CEDC8FE79AE126E0815068
:1007D00090402040E1F700C0000081E090DC4FE94C
:1007E00066E881E0415060408040E1F700C00000D1
:1007F00080E885DC86EB90E0B5DC80EC80DC8EEA7E
:1008000090E0B0DC9FEB27E249E09150204040406F
:10081000E1F700C0000081E072DC10924B01109201
:100820004A0181E090E09093210180932001809122
:100830002801909129014F97059708F0F4C181E0B4
:1008400090E090934B0180934A0180911E0190911A
:100850001F01893E93400CF4E6C1809124019091E0
:100860002501893E23E092070CF463C62091220102
:1008700030912301293E33400CF461C620912001C0
:1008800030912101232B09F05AC6DBBCCABCC298A7
:10089000C398C49880E833DC8EE790E063DC82E89C
:1008A0002EDC8CE491E05EDC80EC29DC81E890E0D9
:1008B00059DC82EC24DC80E491E054DC6FE78AE1CF
:1008C00096E0615080409040E1F700C0000081E078
:1008D00016DC2FE946E861E0215040406040E1F736
:1008E00000C0000080E80BDC8EEB90E03BDC80EC8D
:1008F00006DC8BEC90E036DC8FEB97E229E0815050
:1009000090402040E1F700C0000081E0F8DB4FE9B3
:1009100066E881E0415060408040E1F700C000009F
:1009200010924B0110924A0181E090E090932101D6
:100930008093200178C12091220130912301283E2B
:1009400043E034070CF05EC020912001309121017A
:100950002130310509F0AFC0DBBCCABCC298C398D6
:10096000C49880E8CCDB8EE790E0FCDB82E8C7DB54
:100970008CE491E0F7DB80ECC2DB81E890E0F2DB15
:1009800082ECBDDB80E491E0EDDB6FE78AE196E08D
:10099000615080409040E1F700C0000081E0AFDB93
:1009A0002FE946E861E0215040406040E1F700C097
:1009B000000080E8A4DB8EEB90E0D4DB80EC9FDBD2
:1009C0008BEC90E0CFDB8FEB97E229E081509040F9
:1009D0002040E1F700C0000081E091DB4FE966E8CC
:1009E00081E0415060408040E1F700C0000010927B
:1009F0004B0110924A0181E090E090932101809395
:100A0000200111C1293E33400CF455C02091200132
:100A1000309121012130310509F04DC0DBBCCABC49
:100A2000C298C398C49A80E86ADB8EE790E09ADBAC
:100A300082E865DB8CE491E095DB80EC60DB81E8AB
:100A400090E090DB82EC5BDB80E491E08BDB6FE796
:100A50008AE196E0615080409040E1F700C00000DC
:100A600081E04DDB2FE946E861E0215040406040E5
:100A7000E1F700C0000080E842DB8EEB90E072DB23
:100A800080EC3DDB8EEA90E06DDB8FEB97E229E0B6
:100A9000815090402040E1F700C0000081E02FDB52
:100AA00010924B0110924A0181E090E09093210155
:100AB00080932001B8C0893E93400CF4B4C080916B
:100AC000220190912301883E63E096070CF054C008
:100AD0008091200190912101019709F0A4C0DBBC15
:100AE000CABCC298C39AC49880E809DB8EE790E03C
:100AF00039DB82E804DB8CE491E034DB80ECFFDA64
:100B000081E890E02FDB82ECFADA80E491E02ADBE6
:100B10008FE79AE126E0815090402040E1F700C045
:100B2000000081E0ECDA4FE966E881E04150604086
:100B30008040E1F700C0000080E8E1DA86EB90E059
:100B400011DB80ECDCDA8BEC90E00CDB9FEB27E236
:100B500049E0915020404040E1F700C0000081E0B2
:100B6000CEDA10924B0110924A0181E090E090930E
:100B700021018093200157C0893E93400CF453C05B
:100B80008091200190912101019709F04CC01BBC7C
:100B90001ABCC298C39AC49A80E8B1DA8EE790E092
:100BA000E1DA82E8ACDA8CE491E0DCDA80ECA7DA16
:100BB00081E890E0D7DA82ECA2DA80E491E0D2DA40
:100BC0008FE79AE126E0815090402040E1F700C095
:100BD000000081E094DA4FE966E881E0415060402E
:100BE0008040E1F700C0000080E889DA86EB90E001
:100BF000B9DA80EC84DA8EEA90E0B4DA9FEB27E28F
:100C000049E0915020404040E1F700C0000081E001
:100C100076DA10924B0110924A0181E090E09093B5
:100C200021018093200180912801909129019C014C
:100C3000245231092530310508F0FBC121E030E0B4
:100C400030934B0120934A0120911E0130911F01E6
:100C5000293E33400CF457C42091240130912501E2
:100C6000293E43E034070CF465C0409122015091C5
:100C70002301493E53400CF468C440912001509137
:100C80002101452B09F061C41BBD0ABDC298C39860
:100C9000C49880E834DA8EE790E064DA82E82FDAEC
:100CA0008CE491E05FDA80EC2ADA81E890E05ADAAD
:100CB00082EC25DA80E491E055DA8FE79AE126E0CC
:100CC000815090402040E1F700C0000081E017DA39
:100CD0004FE966E881E0415060408040E1F700C0A4
:100CE000000080E80CDA88ED90E03CDA80EC07DA6E
:100CF00085EE90E037DA9FEB27E249E09150204003
:100D00004040E1F700C0000081E0F9D96FE986E8D2
:100D100091E0615080409040E1F700C000001092E7
:100D20004B0110924A0181E090E090932101809361
:100D300020017FC1283E43E034070CF0C0C0409141
:100D4000220150912301483E63E056070CF05EC03B
:100D500040912001509121014130510509F0AFC06F
:100D60001BBD0ABDC298C398C49880E8C8D98EE755
:100D700090E0F8D982E8C3D98CE491E0F3D980EC13
:100D8000BED981E890E0EED982ECB9D980E491E057
:100D9000E9D98FE79AE126E0815090402040E1F7C1
:100DA00000C0000081E0ABD94FE966E881E0415026
:100DB00060408040E1F700C0000080E8A0D988EDE5
:100DC00090E0D0D980EC9BD985EE90E0CBD99FEB19
:100DD00027E249E0915020404040E1F700C0000088
:100DE00081E08DD96FE986E891E0615080409040C4
:100DF000E1F700C0000010924B0110924A0181E01F
:100E000090E0909321018093200113C1493E53400B
:100E10000CF455C040912001509121014130510501
:100E200009F04DC01BBD0ABDC298C398C49A80E8A2
:100E300066D98EE790E096D982E861D98CE491E09A
:100E400091D980EC5CD981E890E08CD982EC57D9BB
:100E500080E491E087D98FE79AE126E081509040C5
:100E60002040E1F700C0000081E049D94FE966E881
:100E700081E0415060408040E1F700C0000080E820
:100E80003ED988ED90E06ED980EC39D98EEA90E0B9
:100E900069D99FEB27E249E0915020404040E1F7BB
:100EA00000C0000081E02BD910924B0110924A0142
:100EB00081E090E09093210180932001BAC0293E07
:100EC00033400CF448C32091220130912301283E85
:100ED00043E034070CF055C02091200130912101EE
:100EE0002130310509F014C31BBD0ABDC298C39A55
:100EF000C49880E804D98EE790E034D982E8FFD81E
:100F00008CE491E02FD980ECFAD881E890E02AD9DE
:100F100082ECF5D880E491E025D96FE78AE196E08C
:100F2000615080409040E1F700C0000081E0E7D8C8
:100F30002FE946E861E0215040406040E1F700C001
:100F4000000080E8DCD886EB90E00CD980ECD7D8A4
:100F500085EE90E007D98FEB97E229E08150904031
:100F60002040E1F700C0000081E0C9D810924B0199
:100F700010924A0181E090E090932101809320013A
:100F800058C0293E33400CF4C3C220912001309157
:100F900021012130310509F0BBC21BBC1ABCC2982B
:100FA000C39AC49A80E8ABD88EE790E0DBD882E899
:100FB000A6D88CE491E0D6D880ECA1D881E890E066
:100FC000D1D882EC9CD880E491E0CCD86FE78AE15C
:100FD00096E0615080409040E1F700C0000081E061
:100FE0008ED82FE946E861E0215040406040E1F7AB
:100FF00000C0000080E883D886EB90E0B3D880EC96
:101000007ED88EEA90E0AED88FEB97E229E081504F
:1010100090402040E1F700C0000081E070D81092BD
:101020004B0110924A0181E090E09093210180935E
:10103000200180912801909129018897409708F01C
:10104000F5C181E090E090934B0180934A0180913B
:101050001E0190911F01893E93400CF429C9809193
:10106000240190912501893E63E096070CF47CC22F
:101070002091220130912301293E33400CF47AC2A1
:101080002091200130912101232B09F073C2FBBC78
:10109000EABCC298C398C49880E831D88EE790E043
:1010A00061D882E82CD88CE491E05CD880EC27D819
:1010B00081E890E057D882EC22D880E491E052D8C1
:1010C0006FE78AE196E0615080409040E1F700C010
:1010D000000081E014D82FE946E861E0215040404B
:1010E0006040E1F700C0000080E809D882EF90E09E
:1010F00039D880EC04D880E091E034D88FEB97E2C7
:1011000029E0815090402040E1F700C0000081E0DC
:10111000F6D74FE966E881E0415060408040E1F752
:1011200000C0000010924B0110924A0181E090E053
:101130009093210180932001BBC82091220130911E
:101140002301283E43E034070CF05EC020912001CB
:10115000309121012130310509F0AFC0FBBCEABC60
:10116000C298C398C49880E8CAD78EE790E0FAD7AF
:1011700082E8C5D78CE491E0F5D780ECC0D781E850
:1011800090E0F0D782ECBBD780E491E0EBD76FE73B
:101190008AE196E0615080409040E1F700C0000095
:1011A00081E0ADD72FE946E861E021504040604042
:1011B000E1F700C0000080E8A2D782EF90E0D2D72C
:1011C00080EC9DD780E091E0CDD78FEB97E229E0CE
:1011D000815090402040E1F700C0000081E08FD7AF
:1011E0004FE966E881E0415060408040E1F700C08F
:1011F000000010924B0110924A0181E090E0909320
:1012000021018093200154C8293E33400CF455C07D
:1012100020912001309121012130310509F04DC08C
:10122000FBBCEABCC298C398C49A80E868D78EE732
:1012300090E098D782E863D78CE491E093D780EC74
:101240005ED781E890E08ED782EC59D780E491E0B8
:1012500089D76FE78AE196E0615080409040E1F7DE
:1012600000C0000081E04BD72FE946E861E0215043
:1012700040406040E1F700C0000080E840D782EFC6
:1012800090E070D780EC3BD78EEA90E06BD78FEB85
:1012900097E229E0815090402040E1F700C0000033
:1012A00081E02DD710924B0110924A0181E090E02D
:1012B0009093210180932001FBC7893E93400CF459
:1012C000F7C78091220190912301883E63E0960741
:1012D0000CF054C08091200190912101019709F0F8
:1012E000E7C7FBBCEABCC298C39AC49880E807D79A
:1012F0008EE790E037D782E802D78CE491E032D7CE
:1013000080ECFDD681E890E02DD782ECF8D680E421
:1013100091E028D78FE79AE126E081509040204065
:10132000E1F700C0000081E0EAD64FE966E881E01D
:10133000415060408040E1F700C0000080E8DFD607
:1013400086EB90E00FD780ECDAD680E091E00AD708
:101350009FEB27E249E0915020404040E1F700C078
:10136000000081E0CCD610924B0110924A0181E03E
:1013700090E090932101809320019AC7893E934089
:101380000CF496C78091200190912101019709F0FA
:101390008FC71BBC1ABCC298C39AC49A80E8AFD648
:1013A0008EE790E0DFD682E8AAD68CE491E0DAD628
:1013B00080ECA5D681E890E0D5D682ECA0D680E47A
:1013C00091E0D0D68FE79AE126E08150904020400E
:1013D000E1F700C0000081E092D64FE966E881E0C5
:1013E000415060408040E1F700C0000080E887D6AF
:1013F00086EB90E0B7D680EC82D68EEA90E0B2D64B
:101400009FEB27E249E0915020404040E1F700C0C7
:10141000000081E074D610924B0110924A0181E0E5
:1014200090E0909321018093200142C780911E019A
:1014300090911F01893E93400CF03AC7C29A1BBCA1
:101440001ABCC39AC49A80E85AD68EE790E08AD62E
:1014500082E855D68CE491E085D680EC50D681E8C0
:1014600090E080D682EC4BD680E491E07BD68FE78B
:101470009AE126E0815090402040E1F700C0000052
:1014800081E03DD64FE966E881E041506040804010
:10149000E1F700C0000080E832D684E890E062D630
:1014A00080EC2DD68CE890E05DD69FEB27E249E0FA
:1014B000915020404040E1F700C0000081E01FD67D
:1014C0006FE986E891E0615080409040E1F700C00C
:1014D000000080E814D68EE091E044D62FEB47E27E
:1014E00069E0215040406040E1F700C0000081E029
:1014F00006D68FE996E821E0815090402040E1F740
:1015000000C00000D5C68897409708F49ACD96CFC2
:101510008897409708F495CDCBC6883E43E0940762
:101520000CF40DC8D0C8883E63E096070CF07FC964
:1015300006C8883E23E092070CF4FDC974CB883EB0
:1015400043E094070CF0BBCAF6C9283E63E03607B7
:101550000CF4F5CBB8CC80912801909129018897A3
:10156000409708F46ECDA4C6883E23E092070CF4A1
:10157000E4CD9EC6883E43E094070CF0A2CEDDCDBC
:101580005058BB27AA270ED04DC13ED130F043D1D1
:1015900020F031F49F3F11F41EF433C10EF4E095B6
:1015A000E7FB29C1E92F4FD180F3BA176207730710
:1015B0008407950718F071F49EF567C10EF4E09565
:1015C0000B2EBA2FA02D0B01B90190010C01CA01FD
:1015D000A0011124FF27591B99F0593F50F4503EA8
:1015E00068F11A16F040A22F232F342F4427585F9A
:1015F000F3CF469537952795A795F0405395C9F7B2
:101600007EF41F16BA0B620B730B840BBAF0915069
:10161000A1F0FF0FBB1F661F771F881FC2F70EC008
:10162000BA0F621F731F841F48F4879577956795DB
:10163000B795F7959E3F08F0B3CF9395880F08F0C4
:101640009927EE0F9795879508950CD0EBC0E3D0BE
:1016500040F0DAD030F021F45F3F19F0CCC05111E6
:1016600015C1CFC0F0D098F39923C9F35523B1F336
:10167000951B550BBB27AA2762177307840738F001
:101680009F5F5F4F220F331F441FAA1FA9F333D060
:101690000E2E3AF0E0E830D091505040E695001C14
:1016A000CAF729D0FE2F27D0660F771F881FBB1FD0
:1016B000261737074807AB07B0E809F0BB0B802DAA
:1016C000BF01FF2793585F4F2AF09E3F510568F0F6
:1016D00092C0DCC05F3FECF3983EDCF386957795D3
:1016E0006795B795F7959F5FC9F7880F911D9695F8
:1016F000879597F90895E1E0660F771F881FBB1F54
:10170000621773078407BA0720F0621B730B840B00
:10171000BA0BEE1F88F7E095089504D06894B111D4
:10172000B5C0089598D088F09F5790F0B92F9927A9
:10173000B751A0F0D1F0660F771F881F991F1AF0DC
:10174000BA95C9F712C0B13081F09FD0B1E00895C9
:101750009CC0672F782F8827B85F39F0B93FCCF34A
:10176000869577956795B395D9F73EF490958095D2
:10177000709561957F4F8F4F9F4F0895E89409C0F2
:1017800097FB3EF490958095709561957F4F8F4FB4
:101790009F4F9923A9F0F92F96E9BB279395F695CA
:1017A000879577956795B795F111F8CFFAF4BB0F48
:1017B00011F460FF1BC06F5F7F4F8F4F9F4F16C0AC
:1017C000882311F096E911C0772321F09EE8872F36
:1017D000762F05C0662371F096E8862F70E060E0F2
:1017E0002AF09A95660F771F881FDAF7880F96956B
:1017F000879597F9089597F99F6780E870E060E012
:1018000008959FEF80EC089500240A941616170699
:1018100018060906089500240A94121613061406E1
:1018200005060895092E0394000C11F4882352F044
:10183000BB0F40F4BF2B11F460FF04C06F5F7F4FFC
:101840008F4F9F4F089557FD9058440F551F59F0E3
:101850005F3F71F04795880F97FB991F61F09F3F9D
:1018600079F087950895121613061406551FF2CFC6
:101870004695F1DF08C0161617061806991FF1CF16
:1018800086957105610508940895E894BB2766273D
:101890007727CB0197F908950EF0A6C0B2CF6894D0
:1018A000AACFD9DFC8F39923D1F3C6F3DF93CF933F
:1018B0001F930F93FF92C92FDD2788232AF02197CA
:1018C000660F771F881FDAF720E030E040E85FEB13
:1018D0009FE3883920F0803E30F021968F7751DEEB
:1018E000E6E2F0E003C04DDEE3E5F0E08BD08B01F3
:1018F000BE01EC01FB2E6F5771097595771F880BA0
:10190000990B3EDF28E132E741E35FE316D0AF2DCC
:101910009801AE01FF900F911F91CF91DF9142DEB0
:1019200081CF0BD07FCF70DF28F075DF18F09523C3
:1019300009F061CF66CF1124A9CF85DFA0F3959F71
:10194000D1F3950F50E0551F629FF001729FBB27A6
:10195000F00DB11D639FAA27F00DB11DAA1F649F52
:101960006627B00DA11D661F829F2227B00DA11D05
:10197000621F739FB00DA11D621F839FA00D611D8B
:10198000221F749F3327A00D611D231F849F600DAC
:10199000211D822F762F6A2F11249F5750408AF0E5
:1019A000E1F088234AF0EE0FFF1FBB1F661F771F71
:1019B000881F91505040A9F79E3F510570F01BCFF2
:1019C00065CF5F3FECF3983EDCF38695779567959E
:1019D000B795F795E7959F5FC1F7FE2B880F911D8F
:1019E0009695879597F908959F3F31F0915020F48F
:1019F000879577956795B795880F911D96958795EB
:101A000097F90895DF93CF931F930F93FF92EF926F
:101A1000DF927B018C01689405C0DA2EEF018DDF27
:101A2000FE01E894A5912591359145915591AEF32C
:101A3000EF01B8DDFE019701A801DA9479F7DF9094
:101A4000EF90FF900F911F91CF91DF910895052E98
:101A500097FB16F400940FD057FD05D014D007FC67
:101A600002D046F408C050954095309521953F4FDF
:101A70004F4F5F4F089590958095709561957F4F7A
:101A80008F4F9F4F0895A1E21A2EAA1BBB1BFD0189
:101A90000DC0AA1FBB1FEE1FFF1FA217B307E4074D
:101AA000F50720F0A21BB30BE40BF50B661F771FA5
:101AB000881F991F1A9469F7609570958095909585
:101AC0009B01AC01BD01CF0108954532510518F4C9
:101AD000423008F004C0FB011082CB010895BB27FF
:101AE0004A3031F4992322F4BDE2909581959F4FBD
:101AF00001C0BB27FB015527AA27880F991FAA1FE2
:101B0000A41710F0A41B83955051B9F7A05DAA3318
:101B100008F0A95DA193009779F7B111B1931192E3
:101B2000CB0100C0DC01FC01672F71917723E1F745
:101B3000329704C07C916D9370836291AE17BF079A
:081B4000C8F30895F894FFCFEB
:101B4800202057656C636F6D6520746F20202020FE
:101B58000020202020204443464355202000543DA7
:101B680000563D0046312053544F50004632205312
:101B7800544F5000463120313025205350454544BC
:101B88000046322031302520535045454400463226
:101B9800204641494C004631204641494C004631D7
:101BA80020323525205350454544004632203235F1
:101BB80025205350454544004631203530252053D3
:101BC8005045454400463220353025205350454580
:101BD80044004631203130302520535045454400DB
:101BE8004632203130302520535045454400534D6E
:0E1BF8004F4B4520414C41524D204F4E4E0068
:00000001FF
